:020000040800F2
:1000000000500020F5440008BD3F0008C93F00082B
:10001000CF3F0008D53F0008DB3F0008000000008C
:10002000000000000000000000000000E13F0008A8
:10003000ED3F000800000000F93F000805400008FF
:100040003D4500083D4500083D4500083D45000888
:100050003D4500083D4500083D4500083D45000878
:100060003D4500083D4500083D4500083D45000868
:100070003D4500083D4500081140000825400008A6
:100080003D4500083D4500083D4500083D45000848
:100090003D4500083D4500083D4500083D45000838
:1000A0003D4500083D4500083D4500083D45000828
:1000B0003D450008394000083D4500083D45000821
:1000C0003D4500083D4500083D4500083D45000808
:1000D0003D4500084D4000083D4500083D450008ED
:1000E0003D4500083D4500083D4500080000000072
:1000F0000000000000000000000000000000000000
:0C01000000000000000000005FF808F1A3
:1001100010B5054C237833B9044B13B10448AFF341
:1001200000800123237010BD880000200000000023
:10013000D845000808B5034B1BB103490348AFF38A
:10014000008008BD000000008C000020D845000899
:100150007BB972B90029BEBF00204FF0004106E014
:1001600008BF00281CBF6FF000414FF0FF3000F0C7
:10017000A7B9ADF1080C6DE904CE002909DB002B0D
:100180001ADB00F035F8DDF804E0DDE9022304B005
:100190007047404261EB4101002B1BDB00F028F867
:1001A000DDF804E0DDE9022304B0404261EB4101E7
:1001B000524263EB43037047524263EB430300F048
:1001C00017F8DDF804E0DDE9022304B0404261EBFA
:1001D00041017047524263EB430300F009F8DDF838
:1001E00004E0DDE9022304B0524263EB43037047AD
:1001F0002DE9F0478C460446089E002B4BD18A42DD
:10020000154667D9B2FA82F24AB1C2F1200701FA63
:1002100002F320FA07F7954047EA030C94404FEAAF
:10022000154EBCFBFEF71FFA85F80EFB17C307FB44
:1002300008F9210C41EA0343994509D9EB1807F164
:10024000FF3180F01C81994540F21981023F2B4417
:10025000A3EB0903B3FBFEF00EFB103300FB08F128
:10026000A4B244EA0344A14209D92C1900F1FF3396
:1002700080F00781A14240F2048102382C4440EA18
:1002800007400027641A1EB10023D440C6E900438A
:100290003946BDE8F0878B4209D9002E00F0EC808A
:1002A0000027C6E9000138463946BDE8F087B3FAB1
:1002B00083F7002F48D18B4202D3824200F2FB80A9
:1002C000841A61EB030301209C46002EE0D0C6E9AE
:1002D000004CDDE702B9FFDEB2FA82F2002A40F0FC
:1002E0008F800127491B4FEA15481FFA85F9B1FB9A
:1002F000F8FE08FB1E1109FB0EF04FEA144C4CEA05
:100300000143984207D9EB180EF1FF3102D298420F
:1003100000F2CD808E461B1AB3FBF8F008FB1033B9
:1003200009FB00F9A4B244EA0344A14507D92C19FA
:1003300000F1FF3302D2A14500F2B6801846A4EBCB
:10034000090440EA0E409EE7C7F12005BB4022FAAF
:1003500005FC4CEA030C21FA05F44FEA1C4EB4FBF1
:10036000FEF91FFA8CF80EFB194420FA05F3B94088
:1003700009FB08FA19430B0C43EA0444A24502FAAC
:1003800007F200FA07F30BD91CEB040409F1FF3064
:1003900080F08880A24540F28580A9F1020964447A
:1003A000A4EB0A04B4FBFEF00EFB104400FB08FAB9
:1003B00089B241EA0444A24508D91CEB040400F1C7
:1003C000FF316BD2A24569D90238644440EA094042
:1003D000A0FB0289A4EB0A044C454146CE4654D307
:1003E00051D0002E69D05A1A64EB0E0404FA05F5B8
:1003F00022FA07F3FC401D43C6E90054002747E7F3
:100400009540C2F1200321FA03F04FEA1548B0FBF2
:10041000F8F71FFA85F908FB170024FA03F3914057
:1004200007FB09FC0B43190C41EA00418C4504FA17
:1004300002F407D9691807F1FF3031D28C452FD962
:10044000023F2944A1EB0C01B1FBF8F008FB101CA2
:1004500000FB09FE99B241EA0C418E4507D96918A3
:1004600000F1FF3318D28E4516D902382944A1EB8A
:100470000E0140EA07473AE73746304608E70F469D
:10048000E6E61846FBE64345ABD2B8EB020169EB62
:100490000C0201389646A4E71846E8E7084695E7B7
:1004A0000746CFE781467BE702382C4447E7AEF1A9
:1004B000020E2B442FE7384607E73746E8E600BF31
:1004C000704700BF10F8012B11F8013B012A28BF2B
:1004D0009A42F7D0D01A7047034613F8012B002A2E
:1004E000FBD1181A0138704780B485B000AF78602E
:1004F00039600023FB8101237B737B681B681B68C9
:100500001B6803F04003402B09D07B681B681B6805
:100510001A687B681B681B6822F040021A607B68BF
:100520001B681B681A687B681B681B6822F4804282
:100530001A6072B67B681B681B681A687B681B6848
:100540001B6842F040021A600023FB8104E0BFF305
:100550004F8FFB890133FB81FA897B68DB689A4204
:10056000F5D37B681B681B681A687B681B681B686F
:1005700022F040021A6062B600BF7B681B681B68ED
:100580009B6803F00103012BF7D17B681B681B6894
:10059000DB681B78DAB23B681A7000BF7B681B68A7
:1005A0001B689B6803F08003802BF7D07B7B184689
:1005B0001437BD4680BC704780B586B000AFF86088
:1005C000B9603B601346FB800023FB8201237B75EF
:1005D00000F0D4FC3861FB681B681B681B6803F0E3
:1005E0004003402B09D0FB681B681B681A68FB6836
:1005F0001B681B6822F040021A60FB681B681B68BE
:100600001A68FB681B681B6822F480421A6072B685
:10061000FB681B681B681A68FB681B681B6842F054
:1006200040021A6028E0FB681B681B689B6803F0A7
:100630000103002B0ED0FB681B681B680C331B7872
:10064000DAB2BB681A70BB680133BB60FB88013B40
:10065000FB8011E000F092FC02463B69D31A3A6835
:100660009A4203D83B68B3F1FF3F02D13B68002BAD
:1006700002D102237B7535E0FB88012BD3D8002300
:10068000FB8204E0BFF34F8FFB8A0133FB82FA8ABF
:10069000FB68DB689A42F5D3FB681B681B681A6825
:1006A000FB681B681B6822F040021A6062B600BF3C
:1006B000FB681B681B689B6803F00103012BF7D1E3
:1006C000FB681B681B680C331B78DAB2BB681A70B6
:1006D00000BFFB681B681B689B6803F08003802BCE
:1006E000F7D000BF7B7D18461837BD4680BD00009F
:1006F00090B589B000AF786000237B6100233B6137
:100700000023FB600023FB610023BB617B68002B9F
:1007100000F0BE807B681B68DB69382B00F28F809D
:1007200001A252F823F000BF0D0800083F0800089E
:100730003F0800083F0800083F0800083F0800087D
:100740003F0800083F080008130800083F08000899
:100750003F0800083F0800083F0800083F0800085D
:100760003F0800083F080008190800083F08000873
:100770003F0800083F0800083F0800083F0800083D
:100780003F0800083F0800081F0800083F0800084D
:100790003F0800083F0800083F0800083F0800081D
:1007A0003F0800083F080008250800083F08000827
:1007B0003F0800083F0800083F0800083F080008FD
:1007C0003F0800083F0800082B0800083F08000801
:1007D0003F0800083F0800083F0800083F080008DD
:1007E0003F0800083F080008310800083F080008DB
:1007F0003F0800083F0800083F0800083F080008BD
:100800003F0800083F080008370800080223FB6182
:1008100016E00423FB6113E00823FB6110E01023C2
:10082000FB610DE02023FB610AE04023FB6107E050
:100830008023FB6104E04FF48073FB6100E000BFA4
:1008400001F070FC78617A69FB69B2FBF3F33B61FC
:100850003B694FF000041A46234611A1D1E900017B
:10086000FFF776FC03460C463B617B694FF00004C2
:100870001A4623460AA1D1E90001FFF769FC0346A5
:100880000C46FB603A69FB68B2FBF3F35B08BB61A3
:10089000BB6918462437BD4690BD00BFAFF300804A
:1008A0000010A5D4E800000080B586B000AF7860E5
:1008B000396001237B758E233B7400237B74902366
:1008C0003B7300237B737B68002B35D03B68002B88
:1008D00032D03B681A687B681A603B685A687B684C
:1008E0005A603B681A897B681A817868FFF700FFB5
:1008F00002467B68DA6007F1100302221946786825
:1009000000F021F80023FB8202E0FB8A0133FB8226
:10091000FB8A132BF9D907F10C03022219467868D8
:1009200000F011F80023FB8202E0FB8A0133FB8216
:10093000FB8A132BF9D901E000237B757B7D1846D8
:100940001837BD4680BD80B586B000AFF860B9608D
:100950001346FB71FB685868FB681B890122194626
:1009600000F0E2FFFB681868FB799AB26423B9686B
:1009700001F0ACFC0346FB75FB685868FB681B89FB
:100980000022194600F0D0FFFB7D18461837BD46FF
:1009900080BD80B586B000AFF8607A601A460B461D
:1009A000FB721346BB72FB7A43F00103DBB2FB72AE
:1009B000FB685868FB681B890122194600F0B4FFE8
:1009C000FB68186807F10B016423012201F07EFC2B
:1009D000BB7A012B09D9BB7A9AB264237968F8688B
:1009E000FFF7EAFD0346FB7505E07968F868FFF755
:1009F0007BFD0346FB75FB685868FB681B8900227A
:100A0000194600F091FFFB681B681B681A68FB68B9
:100A10001B681B6842F480421A60FB681B681B68F5
:100A20001A68FB681B681B6842F040021A60FB7D75
:100A300018461837BD4680BD80B586B000AF7860D7
:100A4000084611461A460346FB700B46BB70134618
:100A50007B70BE233B737B68183308220021184645
:100A600003F09DFD97F820303B2B00F23C817B7812
:100A70003B2B00F23881BB78172B00F2348197F8BA
:100A80002830072B00F22F8197F82C301F2B00F213
:100A90002A8197F830300C2B00F225817B6B40F6D1
:100AA0003402934200F21F8197F820309A4AA2FB49
:100AB0000323DB08DBB203F00703D9B27A68137EA5
:100AC00061F30613137697F82020934BA3FB0213D0
:100AD000D9080B469B000B445B00D31ADBB203F032
:100AE0000F03D9B27A68137E61F3030313767A6831
:100AF000137E6FF3C71313767B78874AA2FB032319
:100B0000DB08DBB203F00703D9B27A68537E61F3E6
:100B1000061353767A78804BA3FB0213D9080B4651
:100B20009B000B445B00D31ADBB203F00F03D9B276
:100B30007A68537E61F303035376FB78002B33D03E
:100B4000BB780C2B30D8BB78734AA2FB0323DB089D
:100B5000DBB203F00103D9B27A68937E61F3041328
:100B60009376BA786C4BA3FB0213D9080B469B0013
:100B70000B445B00D31ADBB203F00F03D9B27A68DF
:100B8000937E61F30303937697F8243003F0010317
:100B9000D9B27A68937E61F3451393767A68937E2F
:100BA00043F08003937625E0BB785B4AA2FB0323E6
:100BB000DB08DBB203F00303D9B27A68937E61F3FA
:100BC00005139376BA78544BA3FB0213D9080B464E
:100BD0009B000B445B00D31ADBB203F00F03D9B2C6
:100BE0007A68937E61F3030393767A68937E6FF35A
:100BF000C713937697F82C30474AA2FB0323DB08F0
:100C0000DBB203F00303D9B27A68D37E61F3051334
:100C1000D37697F82C20404BA3FB0213D9080B4640
:100C20009B000B445B00D31ADBB203F00F03D9B275
:100C30007A68D37E61F30303D37697F83030364A6F
:100C4000A2FB0323DB08DBB203F00103D9B27A680D
:100C5000137F61F30413137797F830202E4BA3FB17
:100C60000213D9080B469B000B445B00D31ADBB27E
:100C700003F00F03D9B27A68137F61F3030313778C
:100C800097F8283003F00703D9B27A68537F61F3ED
:100C9000020353777B6BA3F5FA631F4AA2FB03237E
:100CA000DB0803F00F03D9B27A68937F61F307136F
:100CB00093777B6BA3F5FA61174BA3FB0123DA084B
:100CC00013469B0013445B00CA1A134603F00F033C
:100CD000D9B27A68937F61F3030393777A68D37FFD
:100CE0006FF3C713D3777B6803F1180107F10C0387
:100CF00001330822184603F047FC07F10C030922D0
:100D000019467868FFF71FFE0346FB75FB7D184602
:100D10001837BD4680BD00BFCDCCCCCC80B584B0EB
:100D200000AF78600123FB737B68002B00F0BF806D
:100D30007B6803F110020823BF217868FFF729FEC2
:100D40000346FB737B681B7DC3F30013DBB21A46BB
:100D5000920013445B00DBB27A68127DC2F3030297
:100D6000D2B21344BB737B689B7C23F07F03DBB25E
:100D7000002B17D17B689B7CC3F30113DBB21A46AF
:100D8000920013445B00DBB27A68927CC2F30302E8
:100D9000D2B21344DAB27B6883F821207B68474AD9
:100DA000DA621EE07B689B7CC3F30013DBB21A4659
:100DB000920013445B00DBB27A68927CC2F30302B8
:100DC000D2B21344DAB27B6883F821207B689B7C23
:100DD000C3F34013DBB21A46394B53F822207B6829
:100DE000DA627B685B7CC3F30213DBB21A469200C3
:100DF00013445B00DBB27A68527CC2F30302D2B2C6
:100E00001344DAB27B6883F822207B681B7CC3F32F
:100E10000213DBB21A46920013445B00DBB27A681D
:100E2000127CC2F30302D2B21344DAB27B6883F8B5
:100E300020207B685B7DC3F30203DBB21A46214BA3
:100E400053F822207B689A62BB7B1F4A52F823200A
:100E50007B685A627B68DB7CC3F30113DBB21A4602
:100E6000920013445B00DBB27A68D27CC2F30302C7
:100E7000D2B21344DAB27B6883F823207B689B7D6F
:100E8000C3F30313DBB29BB21A46920013445B0018
:100E90009AB27B689B7DC3F30303DBB29BB213441E
:100EA0009BB203F5FA639AB27B681A8601E00023CD
:100EB000FB73FB7B18461037BD4680BD48460008D3
:100EC00054000020000000202000002080B500AF6A
:100ED000084B1B68074A43F010031360032000F01F
:100EE00023F9002000F008F802F028FF002318463C
:100EF00080BD00BF0020024080B582B000AF7860A6
:100F0000124B1A68124B1B7819464FF47A73B3FBD5
:100F1000F1F3B2FBF3F3184600F03BF90346002B64
:100F200001D001230EE07B680F2B0AD800227968DC
:100F30004FF0FF3000F003F9064A7B68136000238E
:100F400000E0012318460837BD4680BD7000002030
:100F5000600000205C00002080B400AF054B1B78CF
:100F60001A46054B1B681344034A136000BFBD4675
:100F700080BC7047600000204C01002080B400AFAE
:100F8000024B1B681846BD4680BC70474C010020D0
:100F900080B485B000AF78607B6803F00703FB6026
:100FA0000C4BDB68BB60BA684FF6FF031340BB60B5
:100FB000FB681A02BB68134343F0BF6343F400337A
:100FC000BB60044ABB68D36000BF1437BD4680BC19
:100FD000704700BF00ED00E080B400AF044BDB6859
:100FE0001B0A03F007031846BD4680BC704700BFCC
:100FF00000ED00E080B483B000AF0346FB7197F9C9
:101000000730002B0BDBFB7903F01F02064997F931
:1010100007305B09012000FA02F241F8232000BFEB
:101020000C37BD4680BC704700E100E080B483B05F
:1010300000AF03463960FB7197F90730002B0ADBDC
:101040003B68DAB20C4997F907301201D2B20B446F
:1010500083F800230AE03B68DAB20849FB7903F021
:101060000F03043B1201D2B20B441A7600BF0C37B7
:10107000BD4680BC704700BF00E100E000ED00E02D
:1010800080B489B000AFF860B9607A60FB6803F0A3
:101090000703FB61FB69C3F10703042B28BF04238B
:1010A000BB61FB690433062B02D9FB69033B00E0FB
:1010B00000237B614FF0FF32BB6902FA03F3DA438E
:1010C000BB681A407B699A404FF0FF317B6901FA97
:1010D00003F3D9437B680B40134318462437BD46BE
:1010E00080BC704780B582B000AF78607B68013B00
:1010F000B3F1807F01D301230FE00A4A7B68013BF3
:1011000053600F214FF0FF30FFF790FF054B002297
:101110009A60044B07221A60002318460837BD4620
:1011200080BD00BF10E000E080B582B000AF786005
:101130007868FFF72DFF00BF0837BD4680BD80B53A
:1011400086B000AF0346B9607A60FB7300237B6111
:10115000FFF742FF78617A68B9687869FFF790FF16
:10116000024697F90F3011461846FFF75FFF00BFA0
:101170001837BD4680BD80B582B000AF0346FB7115
:1011800097F907301846FFF735FF00BF0837BD460F
:1011900080BD80B582B000AF78607868FFF7A2FFAD
:1011A000034618460837BD4680BD000080B485B0B0
:1011B00000AF78600023FB607B68002B01D1012326
:1011C00043E07B681B681A46224B1344224AA2FB69
:1011D00003231B099A007B681A647B681F4ADA6341
:1011E0007B68022283F821207B681B681B68FB60F8
:1011F000FB6823F47F5323F03003FB607B685A685D
:101200007B689B681A437B68DB681A437B681B69B1
:101210001A437B685B691A437B689B691A437B6846
:10122000DB691343FA681343FB607B681B68FA6849
:101230001A607B6800229A637B68012283F8212070
:101240007B68002283F82020002318461437BD460F
:1012500080BC7047F8FFFDBFCDCCCCCC0000024075
:1012600080B586B000AFF860B9607A603B6000235B
:10127000FB75FB6893F82030012B01D102234AE073
:10128000FB68012283F82020FB6893F82130012BB2
:101290003AD1FB68022283F82120FB6800229A637E
:1012A000FB681B681A68FB681B6822F001021A6061
:1012B0003B687A68B968F86800F0AEF9FB68DB6AE9
:1012C000002B08D0FB681B681A68FB681B6842F09B
:1012D0000E021A600FE0FB681B681A68FB681B6847
:1012E00022F004021A60FB681B681A68FB681B681E
:1012F00042F00A021A60FB681B681A68FB681B68E8
:1013000042F001021A6005E0FB68002283F8202009
:101310000223FB75FB7D18461837BD4680BD0000D3
:1013200080B584B000AF78600023FB737B6893F8CE
:101330002130022B05D07B6804229A630123FB73C2
:1013400051E07B681B681A687B681B6822F00E02FC
:101350001A607B681B681A687B681B6822F00102B0
:101360001A607B681B68224A934229D07B681B68FD
:10137000204A934222D07B681B681F4A93421AD0AE
:101380007B681B681D4A934212D07B681B681C4A0D
:1013900093420AD07B681B681A4A934202D14FF4E9
:1013A00080130EE04FF080730BE04FF4803308E0C1
:1013B0004FF4805305E04FF4807302E0102300E007
:1013C0000123114A53607B68012283F821207B6846
:1013D000002283F820207B685B6B002B03D07B68A6
:1013E0005B6B78689847FB7B18461037BD4680BD1D
:1013F000080002401C00024030000240440002404D
:10140000580002406C0002400000024080B584B0E9
:1014100000AF78607B68DB6B1B68FB607B681B68D8
:101420001B68BB607B681B6C04229A40FB681340FE
:10143000002B4FD0BB6803F00403002B4AD07B681D
:101440001B681B6803F02003002B07D17B681B6817
:101450001A687B681B6822F004021A607B681B68AC
:10146000664A934229D07B681B68654A934222D022
:101470007B681B68634A93421AD07B681B68624A88
:10148000934212D07B681B68604A93420AD07B6803
:101490001B685F4A934202D14FF480030EE04FF085
:1014A00080630BE04FF4802308E04FF4804305E0B5
:1014B0004FF4806302E0402300E00423554A536068
:1014C0007B68DB6A002B00F094807B68DB6A7868BD
:1014D00098478EE07B681B6C02229A40FB681340A1
:1014E000002B56D0BB6803F00203002B51D07B6861
:1014F0001B681B6803F02003002B0BD17B681B6863
:101500001A687B681B6822F00A021A607B68012255
:1015100083F821207B681B68384A934229D07B6876
:101520001B68374A934222D07B681B68354A934236
:101530001AD07B681B68344A934212D07B681B68C0
:10154000324A93420AD07B681B68314A934202D1E7
:101550004FF400130EE04FF000730BE04FF4003334
:1015600008E04FF4005305E04FF4007302E020233D
:1015700000E00223274A53607B68002283F8202082
:101580007B689B6A002B34D07B689B6A786898479D
:101590002FE07B681B6C08229A40FB681340002BED
:1015A00028D0BB6803F00803002B23D07B681B689E
:1015B0001A687B681B6822F00E021A607B681A6C3E
:1015C0007B68DB6B012101FA02F25A607B68012221
:1015D0009A637B68012283F821207B68002283F8CC
:1015E00020207B681B6B002B04D07B681B6B78680A
:1015F000984700BF00BF1037BD4680BD08000240BD
:101600001C000240300002404400024058000240EA
:101610006C0002400000024080B485B000AFF8606A
:10162000B9607A603B60FB681A6CFB68DB6B012178
:1016300001FA02F25A60FB681B683A685A60FB685C
:101640005B68102B08D1FB681B687A689A60FB689E
:101650001B68BA68DA6007E0FB681B68BA689A60C2
:10166000FB681B687A68DA6000BF1437BD4680BC2F
:101670007047000080B48BB000AF78603960002301
:101680007B6200233B6227E101227B6A02FA03F3BB
:10169000FB613B681B68FA691340BB61BA69FB696F
:1016A0009A4240F016813B685B68122B34D0122BB3
:1016B0000DD8022B2BD0022B04D8002B31D0012BBC
:1016C0001CD048E0032B43D0112B1BD043E0894AA8
:1016D000934226D0874A934206D8874A934220D025
:1016E000864A93421DD036E0854A934219D0854AF6
:1016F000934216D0844A934213D02CE03B68DB68B7
:101700003B6228E03B68DB6804333B6223E03B68D4
:10171000DB6808333B621EE03B68DB680C333B62EE
:1017200019E03B689B68002B02D104233B6212E066
:101730003B689B68012B05D108233B627B68FA69F3
:101740001A6108E008233B627B68FA695A6102E08B
:1017500000233B6200BFBB69FF2B01D87B6801E01F
:101760007B6804337B61BB69FF2B02D87B6A9B00DB
:1017700002E07B6A083B9B003B617B691A680F2192
:101780003B6901FA03F3DB431A40396A3B6901FA0A
:1017900003F31A437B691A603B685B6803F080536C
:1017A000002B00F09680594B9B69584A43F0010387
:1017B0009361564B9B6903F00103BB60BB68544ABD
:1017C0007B6A9B08023352F82330FB607B6A03F08C
:1017D00003039B000F2202FA03F3DB43FA68134072
:1017E000FB607B684B4A934213D07B684A4A934222
:1017F0000DD07B68494A934207D07B68484A9342A0
:1018000001D1032306E0042304E0022302E00123C4
:1018100000E000237A6A02F0030292009340FA6823
:101820001343FB603A497B6A9B080233FA6841F82C
:1018300023203B685B6803F48033002B06D0394BD0
:101840001A683849BB6913430B6006E0354B1A68C8
:10185000BB69DB43334913400B603B685B6803F4AF
:101860000033002B06D02F4B5A682E49BB69134317
:101870004B6006E02B4B5A68BB69DB432949134098
:101880004B603B685B6803F48013002B06D0254B4C
:101890009A682449BB6913438B6006E0214B9A6820
:1018A000BB69DB431F4913408B603B685B6803F4F3
:1018B0000013002B06D01B4BDA681A49BB6913438F
:1018C000CB6006E0174BDA68BB69DB431549134070
:1018D000CB607B6A01337B623B681A687B6A22FAC1
:1018E00003F3002B7FF4D0AE00BF2C37BD4680BC85
:1018F000704700BF000021100000111000001210FE
:1019000000003110000032100000221000100240D0
:101910000000014000080140000C0140001001409F
:10192000001401400004014080B483B000AF78602F
:101930000B467B8013467B707B78002B03D07A8824
:101940007B681A6103E07B881A047B681A6100BF18
:101950000C37BD4680BC704780B485B000AF78605E
:101960000B467B807B68DB68FB607A88FB681340F2
:101970001A04FB68D9437B880B401A437B681A61C1
:1019800000BF1437BD4680BC7047000080B586B0EC
:1019900000AF78607B68002B01D101236CE27B688B
:1019A0001B6803F00103002B00F08780924B5B68FB
:1019B00003F00C03042B0CD08F4B5B6803F00C037B
:1019C000082B12D18C4B5B6803F48033B3F5803F56
:1019D0000BD1894B1B6803F40033002B6CD07B6860
:1019E0005B68002B68D1012346E27B685B68B3F536
:1019F000803F06D1804B1B687F4A43F480331360DD
:101A00002EE07B685B68002B0CD17B4B1B687A4A0D
:101A100023F480331360784B1B68774A23F48023C8
:101A200013601DE07B685B68B3F5A02F0CD1724B8F
:101A30001B68714A43F4802313606F4B1B686E4A26
:101A400043F4803313600BE06B4B1B686A4A23F44A
:101A500080331360684B1B68674A23F4802313604C
:101A60007B685B68002B13D0FFF788FA386108E0C9
:101A7000FFF784FA02463B69D31A642B01D903238A
:101A8000FAE15D4B1B6803F40033002BF0D014E047
:101A9000FFF774FA386108E0FFF770FA02463B6915
:101AA000D31A642B01D90323E6E1534B1B6803F4DB
:101AB0000033002BF0D100E000BF7B681B6803F00F
:101AC0000203002B63D04C4B5B6803F00C03002B2C
:101AD0000BD0494B5B6803F00C03082B1CD1464B21
:101AE0005B6803F48033002B16D1434B1B6803F073
:101AF0000203002B05D07B681B69012B01D0012359
:101B0000BAE13D4B1B6823F0F8027B685B69DB00A0
:101B1000394913430B603AE07B681B69002B20D0E6
:101B2000364B01221A60FFF729FA386108E0FFF707
:101B300025FA02463B69D31A022B01D903239BE104
:101B40002D4B1B6803F00203002BF0D02A4B1B68BF
:101B500023F0F8027B685B69DB00274913430B60C5
:101B600015E0264B00221A60FFF708FA386108E0FA
:101B7000FFF704FA02463B69D31A022B01D903236B
:101B80007AE11D4B1B6803F00203002BF0D17B6848
:101B90001B6803F00803002B3AD07B689B69002B7D
:101BA00019D0174B01221A60FFF7E8F9386108E0F5
:101BB000FFF7E4F902463B69D31A022B01D903234C
:101BC0005AE10D4B5B6A03F00203002BF0D00120B9
:101BD00000F0DAFA1CE00A4B00221A60FFF7CEF997
:101BE00038610FE0FFF7CAF902463B69D31A022BAE
:101BF00008D9032340E100BF001002400000424228
:101C0000800442429E4B5B6A03F00203002BE9D141
:101C10007B681B6803F00403002B00F0A680002300
:101C2000FB75974BDB6903F08053002B0DD1944B70
:101C3000DB69934A43F08053D361914BDB6903F036
:101C40008053BB60BB680123FB758E4B1B6803F49C
:101C50008073002B18D18B4B1B688A4A43F4807326
:101C60001360FFF78BF9386108E0FFF787F9024648
:101C70003B69D31A642B01D90323FDE0814B1B6818
:101C800003F48073002BF0D07B68DB68012B06D156
:101C90007B4B1B6A7A4A43F0010313622DE07B6899
:101CA000DB68002B0CD1764B1B6A754A23F00103CD
:101CB0001362734B1B6A724A23F0040313621CE025
:101CC0007B68DB68052B0CD16D4B1B6A6C4A43F0BB
:101CD000040313626A4B1B6A694A43F001031362EF
:101CE0000BE0674B1B6A664A23F001031362644BE7
:101CF0001B6A634A23F0040313627B68DB68002BD2
:101D000015D0FFF73BF938610AE0FFF737F90246D3
:101D10003B69D31A41F28832934201D90323ABE0E5
:101D2000574B1B6A03F00203002BEED014E0FFF7C1
:101D300025F938610AE0FFF721F902463B69D31A19
:101D400041F28832934201D9032395E04C4B1B6A40
:101D500003F00203002BEED1FB7D012B05D1484B94
:101D6000DB69474A23F08053D3617B68DB69002B32
:101D700000F08180424B5B6803F00C03082B61D0BC
:101D80007B68DB69022B46D13F4B00221A60FFF7CC
:101D9000F5F8386108E0FFF7F1F802463B69D31A1D
:101DA000022B01D9032367E0354B1B6803F0007356
:101DB000002BF0D17B681B6AB3F5803F08D1304B14
:101DC0005B6823F400327B689B682D4913434B60AA
:101DD0002B4B5B6823F474127B68196A7B685B6A1F
:101DE0000B43274913434B60274B01221A60FFF72F
:101DF000C5F8386108E0FFF7C1F802463B69D31A1D
:101E0000022B01D9032337E01D4B1B6803F000733D
:101E1000002BF0D02FE01C4B00221A60FFF7AEF829
:101E2000386108E0FFF7AAF802463B69D31A022B93
:101E300001D9032320E0124B1B6803F00073002B31
:101E4000F0D118E07B68DB69012B01D1012313E09D
:101E50000B4B5B68FB60FB6803F480327B681B6A9A
:101E60009A4206D1FB6803F470127B685B6A9A425F
:101E700001D0012300E0002318461837BD4680BD7D
:101E800000100240007000406000424280B584B003
:101E900000AF786039607B68002B01D10123D0E06E
:101EA0006A4B1B6803F007033A689A4210D9674BE4
:101EB0001B6823F0070265493B6813430B60634BC3
:101EC0001B6803F007033A689A4201D00123B8E087
:101ED0007B681B6803F00203002B20D07B681B6823
:101EE00003F00403002B05D0594B5B68584A43F4B8
:101EF000E06353607B681B6803F00803002B05D088
:101F0000534B5B68524A43F460535360504B5B68D9
:101F100023F0F0027B689B684D4913434B607B685C
:101F20001B6803F00103002B40D07B685B68012B2A
:101F300007D1474B1B6803F40033002B15D1012355
:101F40007FE07B685B68022B07D1414B1B6803F085
:101F50000073002B09D1012373E03D4B1B6803F094
:101F60000203002B01D101236BE0394B5B6823F0A6
:101F700003027B685B68364913434B60FEF7FEFF44
:101F8000F8600AE0FEF7FAFF0246FB68D31A41F256
:101F90008832934201D9032353E02D4B5B6803F051
:101FA0000C027B685B689B009A42EBD1274B1B6855
:101FB00003F007033A689A4210D2244B1B6823F0BF
:101FC000070222493B6813430B60204B1B6803F058
:101FD00007033A689A4201D0012332E07B681B680C
:101FE00003F00403002B08D0194B5B6823F4E06274
:101FF0007B68DB68164913434B607B681B6803F002
:102000000803002B09D0124B5B6823F460527B68F5
:102010001B69DB000E4913434B6000F021F80146B9
:102020000B4B5B681B0903F00F030A4AD35C21FAD0
:1020300003F3094A1360094B1B681846FEF75CFF5F
:10204000002318461037BD4680BD00BF0020024067
:102050000010024078460008700000205C0000205C
:1020600090B48AB000AF2A4B3C1D0FCB84E80F0020
:10207000284B1B883B800023FB610023BB610023AE
:102080007B6200237B6100233B62234B5B68FB6127
:10209000FB6903F00C03042B02D0082B03D02DE0C6
:1020A0001E4B3B622DE0FB699B0C03F00F0307F115
:1020B0002802134413F8243C7B61FB6903F480334A
:1020C000002B13D0144B5B685B0C03F0010307F18A
:1020D0002802134413F8283CBB617B690F4A02FBBA
:1020E00003F2BB69B2FBF3F37B6204E07B690C4A49
:1020F00002FB03F37B627B6A3B6202E0074B3B62BD
:1021000000BF3B6A18462837BD4690BC704700BFE9
:102110004C4600085C4600080010024000127A009D
:1021200000093D0080B400AF024B1B681846BD4655
:1021300080BC70477000002080B500AFFFF7F2FF51
:102140000146054B5B681B0A03F00703034AD35C97
:1021500021FA03F3184680BD0010024088460008AB
:1021600080B500AFFFF7DEFF0146054B5B68DB0A79
:1021700003F00703034AD35C21FA03F3184680BD3A
:10218000001002408846000880B485B000AF786037
:102190000A4B1B680A4AA2FB03235B0A7A6802FB0C
:1021A00003F3FB6000BFFB685A1EFA60002BF9D1F5
:1021B00000BF1437BD4680BC704700BF70000020D0
:1021C000D34D621080B582B000AF78607B68002B81
:1021D00001D1012376E07B685B6A002B08D17B6824
:1021E0005B68B3F5827F09D07B680022DA6105E085
:1021F0007B6800221A617B6800225A617B6800229A
:102200009A627B6893F85130DBB2002B06D17B6871
:10221000002283F85020786801F0C2FD7B6802221A
:1022200083F851207B681B681A687B681B6822F062
:1022300040021A607B685B6803F482727B689B686B
:1022400003F404431A437B68DB6803F400631A4316
:102250007B681B6903F002031A437B685B6903F028
:1022600001031A437B689B6903F400731A437B687C
:10227000DB6903F038031A437B681B6A03F08003B1
:1022800042EA03017B689B6A03F400527B681B6887
:102290000A431A607B689B691A0C7B681B6802F012
:1022A00004025A607B681B68DA697B681B6822F449
:1022B0000062DA617B6800225A657B68012283F83C
:1022C0005120002318460837BD4680BD80B588B030
:1022D00000AFF860B9603B601346FB800023FB77DA
:1022E000FB6893F85030012B01D1022326E1FB68F3
:1022F000012283F85020FEF741FEB861FB88FB8283
:10230000FB6893F85130DBB2012B02D00223FB773C
:102310000BE1BB68002B02D0FB88002B02D101230C
:10232000FB7702E1FB68032283F85120FB6800225F
:102330005A65FB68BA681A63FB68FA889A86FB6874
:10234000FA88DA86FB6800229A63FB6800229A8783
:10235000FB680022DA87FB6800225A64FB680022CF
:102360001A64FB689B68B3F5004F0FD1FB681B68CC
:102370001A68FB681B6822F040021A60FB681B6841
:102380001A68FB681B6842F480421A60FB681B688D
:102390001B6803F04003402B07D0FB681B681A68DA
:1023A000FB681B6842F040021A60FB68DB68B3F50B
:1023B000006F4BD1FB685B68002B02D0FB8A012BBE
:1023C0003ED1FB681B6B1A88FB681B68DA60FB68F0
:1023D0001B6B9A1CFB681A63FB68DB8E9BB2013B8C
:1023E0009AB2FB68DA862BE0FB681B689B6803F0F7
:1023F0000203022B12D1FB681B6B1A88FB681B6857
:10240000DA60FB681B6B9A1CFB681A63FB68DB8E47
:102410009BB2013B9AB2FB68DA8611E0FEF7AEFD93
:102420000246BB69D31A3A689A4203D83B68B3F1B3
:10243000FF3F02D13B68002B02D10323FB7774E0FE
:10244000FB68DB8E9BB2002BCED14CE0FB685B6857
:10245000002B02D0FB8A012B40D1FB681A6BFB6872
:102460001B680C3312781A70FB681B6B5A1CFB68D4
:102470001A63FB68DB8E9BB2013B9AB2FB68DA867B
:102480002CE0FB681B689B6803F00203022B13D14E
:10249000FB681A6BFB681B680C3312781A70FB68B8
:1024A0001B6B5A1CFB681A63FB68DB8E9BB2013BFB
:1024B0009AB2FB68DA8611E0FEF760FD0246BB695E
:1024C000D31A3A689A4203D83B68B3F1FF3F02D16E
:1024D0003B68002B02D10323FB7726E0FB68DB8EF1
:1024E0009BB2002BCDD1BA693968F86800F0B2F818
:1024F0000346002B02D0FB6820225A65FB689B68CC
:10250000002B0AD100233B61FB681B68DB683B6141
:10251000FB681B689B683B613B69FB685B6D002B3C
:1025200002D00123FB7700E000BFFB68012283F8A3
:102530005120FB68002283F85020FB7F184620378B
:10254000BD4680BD80B588B000AFF860B9603B6023
:102550001346FB71FEF712FD0246BB6A9B1A3A68EE
:102560001344FB61FEF70AFDB861394B1B685B0140
:102570001B0DFA6902FB03F37B6154E03B68B3F186
:10258000FF3F50D0FEF7FAFC0246BB69D31AFA6946
:102590009A4202D9FB69002B3DD1FB681B685A683F
:1025A000FB681B6822F0E0025A60FB685B68B3F5C9
:1025B000827F11D1FB689B68B3F5004F04D0FB68A4
:1025C0009B68B3F5806F07D1FB681B681A68FB68CE
:1025D0001B6822F040021A60FB689B6AB3F5005F3B
:1025E0000FD1FB681B681A68FB681B6822F4005255
:1025F0001A60FB681B681A68FB681B6842F400528B
:102600001A60FB68012283F85120FB68002283F8DE
:102610005020032317E07B69002B01D10023FB61CD
:102620007B69013B7B61FB681B689A68BB68134050
:10263000BA689A420CBF01230023DBB21A46FB7929
:102640009A429BD1002318462037BD4680BD00BF6B
:102650007000002080B586B002AFF860B9607A6083
:102660007B680093BB6800228021F868FFF76AFF4F
:102670000346002B07D0FB685B6D43F02002FB682C
:102680005A65032300E0002318461037BD4680BD7D
:1026900080B582B000AF78607B68002B01D1012348
:1026A00041E07B6893F83D30DBB2002B06D17B68BC
:1026B000002283F83C20786801F0B0FB7B6802229E
:1026C00083F83D207B681A687B68043319461046FE
:1026D00000F064FA7B68012283F846207B680122BF
:1026E00083F83E207B68012283F83F207B6801222B
:1026F00083F840207B68012283F841207B68012217
:1027000083F842207B68012283F843207B68012202
:1027100083F844207B68012283F845207B680122EE
:1027200083F83D20002318460837BD4680BD0000D1
:1027300080B485B000AF78607B6893F83D30DBB241
:10274000012B01D001233AE07B68022283F83D206F
:102750007B681B68DA687B681B6842F00102DA60FC
:102760007B681B68184A93420ED07B681B68B3F1E4
:10277000804F09D07B681B68144A934204D07B6861
:102780001B68134A934211D17B681B689B6803F056
:102790000703FB60FB68062B10D07B681B681A6878
:1027A0007B681B6842F001021A6007E07B681B68C7
:1027B0001A687B681B6842F001021A600023184601
:1027C0001437BD4680BC7047002C01400004004017
:1027D0000008004080B582B000AF78607B681B685D
:1027E0001B6903F00203022B22D17B681B68DB68A4
:1027F00003F00203022B1BD17B681B686FF00202FF
:102800001A617B6801221A777B681B689B6903F059
:102810000303002B03D0786800F0A4F905E0786882
:1028200000F097F9786800F0A6F97B6800221A7723
:102830007B681B681B6903F00403042B22D17B68AF
:102840001B68DB6803F00403042B1BD17B681B6847
:102850006FF004021A617B6802221A777B681B689A
:102860009B6903F44073002B03D0786800F07AF979
:1028700005E0786800F06DF9786800F07CF97B6815
:1028800000221A777B681B681B6903F00803082B7A
:1028900022D17B681B68DB6803F00803082B1BD17F
:1028A0007B681B686FF008021A617B6804221A7744
:1028B0007B681B68DB6903F00303002B03D0786897
:1028C00000F050F905E0786800F043F9786800F00E
:1028D00052F97B6800221A777B681B681B6903F03A
:1028E0001003102B22D17B681B68DB6803F01003F8
:1028F000102B1BD17B681B686FF010021A617B687C
:1029000008221A777B681B68DB6903F44073002B8D
:1029100003D0786800F026F905E0786800F019F92E
:10292000786800F028F97B6800221A777B681B68BA
:102930001B6903F00103012B0ED17B681B68DB6868
:1029400003F00103012B07D17B681B686FF00102C4
:102950001A61786800F05EFF7B681B681B6903F0F2
:102960008003802B0ED17B681B68DB6803F080033B
:10297000802B07D17B681B686FF080021A61786832
:1029800000F06BFA7B681B681B6903F04003402B67
:102990000ED17B681B68DB6803F04003402B07D136
:1029A0007B681B686FF040021A61786800F0ECF8F1
:1029B0007B681B681B6903F02003202B0ED17B680A
:1029C0001B68DB6803F02003202B07D17B681B68A2
:1029D0006FF020021A61786800F036FA00BF0837FD
:1029E000BD4680BD80B584B000AF786039607B683B
:1029F00093F83C30012B01D10223A6E07B68012231
:102A000083F83C207B68022283F83D207B681B68AA
:102A10009B68FB60FB6823F07703FB60FB6823F493
:102A20007F43FB607B681B68FA689A603B681B68A1
:102A3000402B67D0402B0BD8102B73D0102B02D813
:102A4000002B6FD078E0202B6CD0302B6AD073E055
:102A5000702B0DD0702B04D8502B33D0602B41D06D
:102A60006AE0B3F5805F66D0B3F5005F17D063E02E
:102A70007B6818683B6899683B685A683B68DB6804
:102A800000F065F97B681B689B68FB60FB6843F09E
:102A90007703FB607B681B68FA689A604CE07B6890
:102AA00018683B6899683B685A683B68DB6800F0C7
:102AB0004EF97B681B689A687B681B6842F4804209
:102AC0009A6039E07B6818683B6859683B68DB6846
:102AD0001A4600F0C5F87B681B685021184600F0C4
:102AE0001CF929E07B6818683B6859683B68DB681B
:102AF0001A4600F0E3F87B681B686021184600F076
:102B00000CF919E07B6818683B6859683B68DB681A
:102B10001A4600F0A5F87B681B684021184600F0B3
:102B2000FCF809E07B681A683B681B681946104688
:102B300000F0F3F800E000BF7B68012283F83D203D
:102B40007B68002283F83C20002318461037BD46DE
:102B500080BD80B483B000AF786000BF0C37BD4645
:102B600080BC704780B483B000AF786000BF0C3782
:102B7000BD4680BC704780B483B000AF786000BFB2
:102B80000C37BD4680BC704780B483B000AF78601E
:102B900000BF0C37BD4680BC7047000080B485B0D4
:102BA00000AF786039607B681B68FB607B68294AEE
:102BB00093420BD07B68B3F1804F07D07B68264AE5
:102BC000934203D07B68254A934208D1FB6823F0E7
:102BD0007003FB603B685B68FA681343FB607B68CB
:102BE0001C4A93420BD07B68B3F1804F07D07B68BF
:102BF000194A934203D07B68184A934208D1FB6874
:102C000023F44073FB603B68DB68FA681343FB60A6
:102C1000FB6823F080023B685B691343FB607B68C1
:102C2000FA681A603B689A687B68DA623B681A68DF
:102C30007B689A627B68074A934203D13B681A69B2
:102C40007B681A637B6801225A6100BF1437BD4656
:102C500080BC7047002C0140000400400008004088
:102C600080B487B000AFF860B9607A60FB681B6A17
:102C70007B61FB681B6A23F00102FB681A62FB6838
:102C80009B693B613B6923F0F0033B617B681B015F
:102C90003A6913433B617B6923F00A037B617A69DC
:102CA000BB6813437B61FB683A699A61FB687A6988
:102CB0001A6200BF1C37BD4680BC704780B487B025
:102CC00000AFF860B9607A60FB681B6A23F01002FD
:102CD000FB681A62FB689B697B61FB681B6A3B614E
:102CE0007B6923F470437B617B681B037A69134320
:102CF0007B613B6923F0A0033B61BB681B013A6920
:102D000013433B61FB687A699A61FB683A691A620E
:102D100000BF1C37BD4680BC704780B485B000AF93
:102D2000786039607B689B68FB60FB6823F0700308
:102D3000FB603A68FB68134343F00703FB607B6862
:102D4000FA689A6000BF1437BD4680BC704780B4F3
:102D500087B000AFF860B9607A603B60FB689B6841
:102D60007B617B6923F47F437B613B681A027B684C
:102D70001A43BB6813437A6913437B61FB687A6922
:102D80009A6000BF1C37BD4680BC704780B485B0D8
:102D900000AF786039607B6893F83C30012B01D13B
:102DA000022346E07B68012283F83C207B680222F4
:102DB00083F83D207B681B685B68FB607B681B6851
:102DC0009B68BB60FB6823F07003FB603B681B687B
:102DD000FA681343FB607B681B68FA685A607B687B
:102DE0001B68164A93420ED07B681B68B3F1804F74
:102DF00009D07B681B68124A934204D07B681B6829
:102E0000104A93420CD1BB6823F08003BB603B683F
:102E10005B68BA681343BB607B681B68BA689A60DA
:102E20007B68012283F83D207B68002283F83C20E8
:102E3000002318461437BD4680BC7047002C014063
:102E4000000400400008004080B483B000AF786008
:102E500000BF0C37BD4680BC704780B483B000AF64
:102E6000786000BF0C37BD4680BC704780B582B02B
:102E700000AF78607B68002B01D101233FE07B68C5
:102E800093F83930DBB2002B06D17B68002283F83F
:102E90003820786800F0E8FF7B68242283F8392026
:102EA0007B681B68DA687B681B6822F40052DA6072
:102EB000786800F021FC7B681B681A697B681B68D6
:102EC00022F490421A617B681B685A697B681B6810
:102ED00022F02A025A617B681B68DA687B681B68EB
:102EE00042F40052DA607B680022DA637B682022B9
:102EF00083F839207B68202283F83A200023184683
:102F00000837BD4680BD000080B586B000AFF860D0
:102F1000B9601346FB80FB6893F83930DBB2202B95
:102F200053D1BB68002B02D0FB88002B01D10123B9
:102F30004CE0FB6893F83830012B01D1022345E0C7
:102F4000FB68012283F83820BA68FB681A62FB68C4
:102F5000FA889A84FB68FA88DA84FB680022DA63CC
:102F6000FB68212283F83920FB681B6B194A9A629F
:102F7000FB681B6B184ADA62FB681B6B174A1A6303
:102F8000FB681B6B00225A6307F108037B61FB6837
:102F9000186B7B691968FB681B6804331A46FB8849
:102FA000FEF75EF9FB681B686FF040021A60FB6871
:102FB000002283F83820FB681B685A69FB681B688D
:102FC00042F080025A61002300E0022318461837BD
:102FD000BD4680BD17330008693300080934000876
:102FE00080B586B000AFF860B9601346FB80FB681F
:102FF00093F83A30DBB2202B66D1BB68002B02D0AD
:10300000FB88002B01D101235FE0FB6893F8383087
:10301000012B01D1022358E0FB68012283F83820FC
:10302000BA68FB689A62FB68FA889A85FB68002296
:10303000DA63FB68222283F83A20FB685B6B254A3F
:103040009A62FB685B6B244ADA62FB685B6B234A1B
:103050001A63FB685B6B00225A6307F108037B610C
:10306000FB68586BFB681B68043319467B691A6858
:10307000FB88FEF7F5F800233B61FB681B681B68C3
:103080003B61FB681B685B683B613B69FB68002236
:1030900083F83820FB681B68DA68FB681B6842F419
:1030A0008072DA60FB681B685A69FB681B6842F033
:1030B00001025A61FB681B685A69FB681B6842F091
:1030C00040025A61002300E0022318461837BD462B
:1030D00080BD00BF85330008ED33000809340008C7
:1030E00080B588B000AF78607B681B681B68FB61A7
:1030F0007B681B68DB68BB617B681B685B697B6105
:1031000000233B610023FB60FB6903F00F033B617D
:103110003B69002B0DD1FB6903F02003002B08D085
:10312000BB6903F02003002B03D0786800F063FA3A
:10313000D1E03B69002B00F0B0807B6903F0010314
:10314000002B05D1BB6903F49073002B00F0A58020
:10315000FB6903F00103002B0AD0BB6903F4807301
:10316000002B05D07B68DB6B43F001027B68DA63E0
:10317000FB6903F00403002B0AD07B6903F0010311
:10318000002B05D07B68DB6B43F002027B68DA63BF
:10319000FB6903F00203002B0AD07B6903F00103F3
:1031A000002B05D07B68DB6B43F004027B68DA639D
:1031B000FB6903F00803002B0FD0BB6903F0200369
:1031C000002B04D17B6903F00103002B05D07B6841
:1031D000DB6B43F008027B68DA637B68DB6B002BF8
:1031E00078D0FB6903F02003002B07D0BB6903F004
:1031F0002003002B02D0786800F0FDF97B681B6883
:103200005B6903F04003002B14BF01230023DBB2F2
:10321000FB607B68DB6B03F00803002B02D1FB68CB
:10322000002B31D0786800F04EF97B681B685B6931
:1032300003F04003002B23D07B681B685A697B682E
:103240001B6822F040025A617B685B6B002B13D035
:103250007B685B6B214A5A637B685B6B1846FEF7A1
:103260005FF80346002B16D07B685B6B5B6B7A685C
:10327000526B104698470EE0786800F043F80AE079
:10328000786800F03FF806E0786800F03BF87B686B
:103290000022DA631EE000BF1CE0FB6903F080033C
:1032A000002B08D0BB6903F08003002B03D07868A3
:1032B00000F03AF90FE0FB6903F04003002B0AD05D
:1032C000BB6903F04003002B05D0786800F07BF960
:1032D00000BF00E000BF2037BD4680BD01350008BB
:1032E00080B483B000AF786000BF0C37BD4680BCAF
:1032F000704780B483B000AF786000BF0C37BD4624
:1033000080BC704780B483B000AF786000BF0C37DA
:10331000BD4680BC704780B584B000AF78607B68E4
:103320005B6AFB607B681B681B6803F02003002B53
:1033300013D1FB680022DA84FB681B685A69FB68BA
:103340001B6822F080025A61FB681B68DA68FB6820
:103350001B6842F04002DA6002E0F86800F09EFA72
:1033600000BF1037BD4680BD80B584B000AF786027
:103370007B685B6AFB60F868FFF7B2FF00BF10373D
:10338000BD4680BD80B584B000AF78607B685B6A65
:10339000FB607B681B681B6803F02003002B1ED1B9
:1033A000FB680022DA85FB681B68DA68FB681B682B
:1033B00022F48072DA60FB681B685A69FB681B683C
:1033C00022F001025A61FB681B685A69FB681B689E
:1033D00022F040025A61FB68202283F83A20F86804
:1033E00000F074FA00BF1037BD4680BD80B584B0D0
:1033F00000AF78607B685B6AFB60F868FFF779FF75
:1034000000BF1037BD4680BD80B584B000AF786086
:103410000023FB607B685B6ABB60BB681B685B6901
:1034200003F08003002B14BF01230023DBB2FB60F9
:10343000BB6893F83930DBB2212B08D1FB68002B35
:1034400005D0BB680022DA84B86800F027F8BB68B2
:103450001B685B6903F04003002B14BF01230023AA
:10346000DBB2FB60BB6893F83A30DBB2222B08D1A9
:10347000FB68002B05D0BB680022DA85B86800F035
:1034800022F8BB68DB6B43F01002BB68DA63B868F4
:10349000FFF738FF00BF1037BD4680BD80B483B052
:1034A00000AF78607B681B68DA687B681B6822F075
:1034B000C002DA607B68202283F8392000BF0C3715
:1034C000BD4680BC704780B483B000AF78607B6835
:1034D0001B68DA687B681B6822F49072DA607B688C
:1034E0001B685A697B681B6822F001025A617B687D
:1034F000202283F83A2000BF0C37BD4680BC7047BD
:1035000080B584B000AF78607B685B6AFB60FB6865
:103510000022DA85FB680022DA84F868FFF7F2FE01
:1035200000BF1037BD4680BD80B485B000AF786065
:103530007B6893F83930DBB2212B3ED17B689B68E6
:10354000B3F5805F14D17B681B69002B10D17B68B9
:103550001B6AFB60FB681B881A467B681B68C2F30A
:1035600008025A607B681B6A9A1C7B681A6208E032
:103570007B681B6A591C7A6811621A787B681B6821
:103580005A607B68DB8C9BB2013B9BB27A68194620
:10359000D184002B0FD17B681B68DA687B681B68BD
:1035A00022F08002DA607B681B68DA687B681B683F
:1035B00042F04002DA60002300E00223184614378C
:1035C000BD4680BC704780B582B000AF78607B6834
:1035D0001B68DA687B681B6822F04002DA607B684F
:1035E000202283F83920786800F058F90023184623
:1035F0000837BD4680BD80B584B000AF78607B6879
:1036000093F83A30DBB2222B70D17B689B68B3F51C
:10361000805F17D17B681B69002B13D10023FB60EF
:103620007B689B6ABB607B681B685B689BB2C3F36B
:1036300008039AB2BB681A807B689B6A9A1C7B68F5
:103640009A6226E07B689B6AFB600023BB607B6814
:103650009B68B3F5805F07D07B689B68002B0AD11D
:103660007B681B69002B06D17B681B685B68DAB23C
:10367000FB681A7008E07B681B685B68DBB203F0CC
:103680007F03DAB2FB681A707B689B6A5A1C7B68FE
:103690009A627B68DB8D9BB2013B9BB27A681946CC
:1036A000D185002B20D17B681B68DA687B681B689A
:1036B00022F02002DA607B681B68DA687B681B688E
:1036C00022F48072DA607B681B685A697B681B6829
:1036D00022F001025A617B68202283F83A20786840
:1036E00000F0F4F8002302E0002300E00223184673
:1036F0001037BD4680BD000080B584B000AF786053
:103700007B681B681B6923F440517B68DA687B681F
:103710001B680A431A617B689A687B681B691A43B5
:103720007B685B691343BB607B681B68DB6823F4C1
:10373000B05323F00C037A681268B9680B43D36066
:103740007B681B685B6923F440717B689A697B68BE
:103750001B680A435A617B681B682C4A934203D159
:10376000FEF7FEFCF86002E0FEF7E6FCF860FA689F
:1037700013469B0013449A001A447B685B689B00C5
:10378000B2FBF3F3224AA2FB03235B091901FA6897
:1037900013469B0013449A001A447B685B689B00A5
:1037A000B2FBF3F21A4BA3FB02035B09642000FB9C
:1037B00003F3D31A1B013233154AA2FB03235B091F
:1037C00003F0F0031944FA6813469B0013449A006F
:1037D0001A447B685B689B00B2FBF3F20C4BA3FBC3
:1037E00002035B09642000FB03F3D31A1B0132338D
:1037F000074AA2FB03235B0903F00F027B681B68E7
:103800000A449A6000BF1037BD4680BD00380140B1
:103810001F85EB5180B584B002AF78607B681B6870
:10382000164A934226D14FF400511548FEF794F8FA
:10383000144B1B68591C144BA3FB01235A09134654
:103840001B019B1A9B00CA1A0E4B1A600F4B93F870
:1038500021301A460D4B93F8223019460B4B93F842
:10386000203000930B460A490A4800F043FC0A4BFB
:1038700001221A7000BF0837BD4680BD0004004019
:1038800000100140A400002089888888B000002032
:103890006046000828020020AC00002080B483B0FD
:1038A00000AF78607B681B68064A934204D1064BE0
:1038B0001B680133044A136000BF0C37BD4680BC4F
:1038C000704700BF00380140A800002080B584B0D8
:1038D00000AF78607B681B682F4A934257D12F4B0B
:1038E0001B78002B12D10023FB7306E0FB7B2C4AD4
:1038F0000021D154FB7B0133FB73FB7B632BF5D998
:1039000000224FF400512748FEF70EF8264B1B7893
:103910000D2B0BD0214B1B785A1CD1B21F4A1170B2
:103920001A46214B19781E4B995421E01B4B00225B
:103930001A701E4B01221A701948FCF7CDFD034680
:103940009BB21A4616491A48FFF7DEFA02221949B5
:103950001748FFF7D9FA18491148FCF7B3FD034699
:10396000002B05D101224FF400510E48FDF7DCFF7A
:1039700001220D490E48FFF733FB0B48FCF7ACFD65
:1039800003469BB21A4608490948FFF7BDFA00BF33
:103990001037BD4680BD00BF0038014051010020F6
:1039A0006802002000100140540100205001002056
:1039B00028020020704600087446000880B586B0D2
:1039C00006AFFDF783FA00F041F800F05BF900F074
:1039D00033F900F081F800F0B7F800F003F90122A4
:1039E00014491548FFF7FCFA14491548FCF75CFF29
:1039F00040F2E5730593092304931A2303930123EB
:103A00000293012301930023009319231122002123
:103A10000B48FDF711F80B48FEF78AFE0A4B1B789E
:103A2000002BFBD00648FDF779F9074B00221A70EE
:103A3000F4E700BF540100202802002064000020A9
:103A4000B000002058010020AC00002080B590B0EC
:103A500000AF07F1180328220021184600F09FFD4F
:103A60003B1D00221A605A609A60DA601A610123D5
:103A7000BB614FF48033FB6100233B620123BB62D7
:103A800002237B634FF48033BB634FF4E013FB638B
:103A900007F118031846FDF779FF0346002B01D004
:103AA00000F046F90F237B600223BB600023FB601C
:103AB0004FF480633B6100237B613B1D022118466C
:103AC000FEF7E4F90346002B01D000F031F900BF06
:103AD0004037BD4680BD000080B500AF184B194A85
:103AE0001A60174B4FF482725A60154B4FF4004224
:103AF0009A60134B0022DA60114B00221A61104BBE
:103B000000225A610E4B4FF400729A610C4B28222E
:103B1000DA610B4B80221A62094B00225A62084B71
:103B200000229A62064B0A22DA620548FEF74AFB37
:103B30000346002B01D000F0FBF800BF80BD00BFA2
:103B4000CC0200200030014080B586B000AF07F104
:103B5000080300221A605A609A60DA603B4600222D
:103B60001A605A601D4B1E4A1A601C4B4FF4E152FA
:103B70005A601A4B00229A60184B41F28732DA6081
:103B8000164B00221A61154B00229A611348FEF76A
:103B90007FFD0346002B01D000F0CAF84FF480539C
:103BA000BB6007F1080319460C48FEF71BFF0346EC
:103BB000002B01D000F0BCF800233B6000237B60A9
:103BC0003B4619460548FFF7E1F80346002B01D0B4
:103BD00000F0AEF800BF1837BD4680BD5801002088
:103BE0000004004080B500AF114B124A1A60104B20
:103BF0004FF4E1325A600E4B00229A600C4B0022C7
:103C0000DA600B4B00221A61094B0C225A61084BF7
:103C100000229A61064B0022DA610548FFF726F977
:103C20000346002B01D000F083F800BF80BD00BF29
:103C3000280200200038014080B582B000AF104B50
:103C40005B690F4A43F0010353610D4B5B6903F05D
:103C500001037B607B68002204210E20FDF76FFAD0
:103C60000E20FDF788FA002205210F20FDF767FAE4
:103C70000F20FDF780FA00BF0837BD4680BD00BFAA
:103C80000010024080B588B000AF07F11003002299
:103C90001A605A609A60DA60234B9B69224A43F0AB
:103CA00010039361204B9B6903F01003FB60FB68DA
:103CB0001D4B9B691C4A43F0200393611A4B9B697F
:103CC00003F02003BB60BB68174B9B69164A43F0A7
:103CD00004039361144B9B6903F004037B607B68CE
:103CE000114B9B69104A43F0080393610E4B9B698B
:103CF00003F008033B603B68002210210B48FDF7EE
:103D000013FE10233B6101237B610023BB6102236F
:103D1000FB6107F1100319460448FDF7ABFC00BF37
:103D20002037BD4680BD00BF0010024000080140A2
:103D300080B400AF00BFBD4680BC704780B485B082
:103D400000AF154B9B69144A43F001039361124B7A
:103D50009B6903F00103BB60BB680F4BDB690E4A34
:103D600043F08053D3610C4BDB6903F080537B60DD
:103D70007B680A4B5B68FB60FB6823F0E063FB60D9
:103D8000FB6843F08073FB60044AFB68536000BF2C
:103D90001437BD4680BC704700100240000001404F
:103DA00080B588B000AF786007F1100300221A6078
:103DB0005A609A60DA607B681B68154A934223D187
:103DC000144B9B69134A43F480539361114B9B69D5
:103DD00003F48053FB60FB680E4B9B690D4A43F074
:103DE000040393610B4B9B6903F00403BB60BB6846
:103DF000A0233B6102237B610323FB6107F11003D6
:103E000019460548FDF736FC00BF2037BD4680BD8A
:103E100000300140001002400008014080B584B02D
:103E200000AF78607B681B680D4A934213D10D4B3D
:103E3000DB690C4A43F00203D3610A4BDB6903F0F0
:103E40000203FB60FB6800220A211D20FDF777F9C1
:103E50001D20FDF790F900BF1037BD4680BD00BFA3
:103E6000000400400010024080B588B000AF7860C8
:103E700007F1100300221A605A609A60DA607B68CA
:103E80001B68474A934240F08680464B9B69454AEF
:103E900043F480439361434B9B6903F48043FB608D
:103EA000FB68404B9B693F4A43F0040393613D4BE1
:103EB0009B6903F00403BB60BB684FF400733B6174
:103EC00002237B610323FB6107F110031946364887
:103ED000FDF7D0FB4FF480633B6100237B6100233F
:103EE000BB6107F1100319462F48FDF7C3FB2F4BA9
:103EF0002F4A1A602D4B00225A602C4B00229A60E8
:103F00002A4B8022DA60294B00221A61274B0022BB
:103F10005A61264B00229A61244B0022DA61234821
:103F2000FDF744F90346002B01D0FFF701FF7B6842
:103F30001E4A5A631D4A7B6853621E4B1E4A1A6012
:103F40001C4B10225A601B4B00229A60194B802296
:103F5000DA60184B00221A61164B00225A61154B89
:103F600000229A61134B0022DA611248FDF71EF914
:103F70000346002B01D0FFF7DBFE7B680D4A1A6376
:103F80000C4A7B685362002208212520FDF7D7F8F0
:103F90002520FDF7F0F800BF2037BD4680BD00BFEB
:103FA000003801400010024000080140E4010020F8
:103FB00058000240A00100204400024080B400AF3D
:103FC00000BFBD4680BC704780B400AFFEE780B440
:103FD00000AFFEE780B400AFFEE780B400AFFEE7BD
:103FE00080B400AF00BFBD4680BC704780B400AF56
:103FF00000BFBD4680BC704780B400AF00BFBD4667
:1040000080BC704780B500AFFCF7A6FF00BF80BD45
:1040100080B500AF0248FDF7F9F900BF80BD00BFD1
:10402000A001002080B500AF0248FDF7EFF900BF06
:1040300080BD00BFE401002080B500AF0248FEF75C
:10404000C9FB00BF80BD00BF5801002080B500AF94
:104050000248FFF745F800BF80BD00BF28020020DE
:1040600080B400AF00BFBD4680BC704780B485B04F
:1040700000AF78603960104BFB60FB6800221A705B
:104080003A687B68B3FBF2F102FB01F29B1AFA6813
:10409000013AFA60094AD25CFB681A703B687A6898
:1040A000B2FBF3F37B607B68002BE9D1FB68184619
:1040B0001437BD4680BC70474901002074000020C1
:1040C00080B586B000AFF860B9603B601346FB80F6
:1040D0000123FB75FB881A46B968F868FEF714FFE0
:1040E0000346002B01D00023FB75FB7D18461837D3
:1040F000BD4680BD0EB480B58FB000AF78607B6CDC
:104100007B6300237B8600237B8300233B86002385
:10411000FB850023BB85002387F82B3000233B85DC
:104120000023FB840023BB8400237B8400233B8487
:104130000023FB830023BB8300233B833222002127
:10414000AC4800F02CFA07F14803FB60B1E17B6B4F
:1041500001337B637B8E01337B86BB8D0133BB8553
:104160007B6B1B78252B03D07B6B1B78002BEED150
:104170007B8E002B1FD0BA8DBB8BD21A3B8E134483
:10418000312B18D8FB8B002B08D1FB8D7A6C134494
:104190007A8E1946974800F00AFA08E0FB8D023340
:1041A0007A6C13447A8E1946924800F000FA002384
:1041B0007B86BB8DFB857B6B1B78252B08D1FB8B0E
:1041C0000133FB837B6B01337B63BB8D0133BB8589
:1041D0007B6B1B78633B152B00F2448101A252F8E4
:1041E00023F000BF3D4200088342000865440008F8
:1041F00065440008654400086544000865440008FB
:1042000065440008654400086544000865440008EA
:104210006544000839430008654400086544000807
:1042200065440008A143000865440008654400088F
:104230006544000865440008FD430008FB681A1D3A
:10424000FA601B683B613B8E01333B867B8C0133FC
:104250007B84BA8D3B8E1A443B8DD21ABB8CD21A0A
:104260007B8CD21A3B8CD21AFB8BD31A312B00F2E7
:10427000FD8007F11003012219465E4800F097F90E
:10428000F4E0FB681A1DFA601B683B613B8D01334B
:104290003B853B69002B22DA3B8E01333B863B6931
:1042A0005B423B61BA8D3B8E1A443B8D1A44FB8CBA
:1042B000D21ABB8CD21A7B8CD21A3B8CD21AFB8BB3
:1042C000D31A312B0BD84B48FCF706F903461A4694
:1042D000484B134448491A460B461B8813803B69D8
:1042E0000A211846FFF7C2FE03461846FCF7F4F809
:1042F00003467B833A8E7B8B13443B86BA8D3B8E81
:104300001A443B8DD21AFB8CD21ABB8CD21A7B8CEE
:10431000D21A3B8CD21AFB8BD31A312B00F2A88015
:104320003B690A211846FFF7A1FE01467B8B1A461E
:10433000304800F03CF99BE0FB681A1DFA601B68EE
:104340003B61BB8C0133BB843B6908211846FFF7F6
:104350008DFE03461846FCF7BFF803467B833A8E72
:104360007B8B13443B86BA8D3B8E1A443B8DD21A0D
:10437000FB8CD21ABB8CD21A7B8CD21A3B8CD21AF1
:10438000FB8BD31A312B75D83B6908211846FFF7F0
:104390006DFE01467B8B1A46164800F008F969E06D
:1043A000FB681A1DFA601B687B61FB8C0133FB8480
:1043B0007869FCF791F803467B833A8E7B8B134434
:1043C0003B86BA8D3B8E1A443B8DD21AFB8CD21A97
:1043D000BB8CD21A7B8CD21A3B8CD21AFB8BD31A91
:1043E000312B49D87B8B1A467969024800F0DFF8F7
:1043F00042E000BFE400002090460008FB681A1D60
:10440000FA601B683B613B8C01333B843B691021A4
:104410001846FFF72BFE03461846FCF75DF80346E7
:104420007B833A8E7B8B13443B86BA8D3B8E1A443A
:104430003B8DD21AFB8CD21ABB8CD21A7B8CD21A2F
:104440003B8CD21AFB8BD31A312B17D83B69102126
:104450001846FFF70BFE01467B8B1A46244800F0F6
:10446000A6F80BE0012387F82B3008E000BF06E038
:1044700000BF04E000BF02E000BF00E000BF3A8DD3
:10448000FB8C13449AB2BB8C13449AB27B8C1344BA
:104490009AB23B8C13449AB2FB8B1344BB8397F8BC
:1044A0002B30002B0BD17B6B01337B63BB8D013336
:1044B000BB857B6B1B78002B7FF452AE00E000BF06
:1044C000BA8DBB8BD31A9AB23B8E13443B833B8B82
:1044D000312B05D83A8B002305497868FFF7F0FDAA
:1044E0003B8B18463C37BD46BDE8804003B0704763
:1044F000E4000020002103E00B4B5B5843500431E3
:104500000A480B4B42189A42F6D30A4A02E00023AB
:1045100042F8043B084B9A42F9D3FFF7A1FD00F0A3
:104520000FF8FFF74BFA7047A44600080000002080
:10453000880000208800002024030020FEE70000FF
:1045400070B500250C4E0D4CA41BA410A54209D13A
:1045500000F042F800250A4E0A4CA41BA410A54204
:1045600005D170BD56F8253098470135EEE756F86D
:10457000253098470135F2E79C4600089C46000824
:104580009C460008A046000810B5431E0A4491420C
:1045900000D110BD11F8014B03F8014FF7E70346B6
:1045A0000244934200D1704703F8011BF9E7034628
:1045B00030B51C785D1C44B912F1FF3204D311F8F8
:1045C000014B03F8014B14B930BD2B46F1E7002A2B
:1045D000F2D11A70F0E70000F8B500BFF8BC08BCD3
:1045E0009E467047F8B500BFF8BC08BC9E467047B1
:1045F000556E6B6E6F776E00446F6D004C756E007C
:104600004D6172004D6965004A7565005669650027
:1046100053616200456E650046656200416272004A
:104620004D6179004A756E004A756C0041676F00F4
:10463000536570004F6374004E6F760044696300E9
:10464000414D0000504D00002020000002030405F1
:10465000060708090A0B0C0D0E0F101001020000CE
:104660002564203A202564203A20256400000000BB
:104670000A0D00004F6E0000000000000000000066
:1046800001020304060708090000000001020304F8
:044690002D000000F9
:084694005CBBFF7F0100000088
:04469C0035010008DC
:0446A00011010008FC
:1046A400F0450008F8450008FC45000800460008ED
:1046B40004460008084600080C4600081046000896
:1046C400F045000814460008184600080046000893
:1046D4001C46000820460008244600082846000816
:1046E4002C460008304600083446000838460008C6
:1046F4003C460008404600084446000810000000FC
:1047040001000000CC02002000080140100000005D
:104714000024F400303132333435363738394142ED
:0847240043444546000000007B
:04000005080044F5B6
:00000001FF
